{
  "_format": "hh-sol-artifact-1",
  "contractName": "WavePortal",
  "sourceName": "contracts/WavePortal.sol",
  "abi": [
    {
      "inputs": [],
      "stateMutability": "payable",
      "type": "constructor"
    },
    {
      "anonymous": false,
      "inputs": [
        {
          "indexed": true,
          "internalType": "address",
          "name": "from",
          "type": "address"
        },
        {
          "indexed": false,
          "internalType": "uint256",
          "name": "timestamp",
          "type": "uint256"
        },
        {
          "indexed": false,
          "internalType": "string",
          "name": "message",
          "type": "string"
        }
      ],
      "name": "NewWave",
      "type": "event"
    },
    {
      "inputs": [],
      "name": "getAllWaves",
      "outputs": [
        {
          "components": [
            {
              "internalType": "address",
              "name": "waver",
              "type": "address"
            },
            {
              "internalType": "string",
              "name": "message",
              "type": "string"
            },
            {
              "internalType": "uint256",
              "name": "timestamp",
              "type": "uint256"
            }
          ],
          "internalType": "struct WavePortal.Wave[]",
          "name": "",
          "type": "tuple[]"
        }
      ],
      "stateMutability": "view",
      "type": "function"
    },
    {
      "inputs": [],
      "name": "getTotalWaves",
      "outputs": [
        {
          "internalType": "uint256",
          "name": "",
          "type": "uint256"
        }
      ],
      "stateMutability": "view",
      "type": "function"
    },
    {
      "inputs": [
        {
          "internalType": "string",
          "name": "_message",
          "type": "string"
        }
      ],
      "name": "wave",
      "outputs": [],
      "stateMutability": "nonpayable",
      "type": "function"
    }
  ],
  "bytecode": "0x60806040526200004f6040518060400160405280601881526020017f57652068617665206265656e20636f6e737472756374656400000000000000008152506200005560201b620004901760201c565b620001e9565b620000f5816040516024016200006c919062000162565b6040516020818303038152906040527f41304fac000000000000000000000000000000000000000000000000000000007bffffffffffffffffffffffffffffffffffffffffffffffffffffffff19166020820180517bffffffffffffffffffffffffffffffffffffffffffffffffffffffff8381831617835250505050620000f860201b60201c565b50565b60008151905060006a636f6e736f6c652e6c6f679050602083016000808483855afa5050505050565b60006200012e8262000186565b6200013a818562000191565b93506200014c818560208601620001a2565b6200015781620001d8565b840191505092915050565b600060208201905081810360008301526200017e818462000121565b905092915050565b600081519050919050565b600082825260208201905092915050565b60005b83811015620001c2578082015181840152602081019050620001a5565b83811115620001d2576000848401525b50505050565b6000601f19601f8301169050919050565b610e5480620001f96000396000f3fe608060405234801561001057600080fd5b50600436106100415760003560e01c8063449d46c0146100465780639a2cdc0814610062578063bd43a90814610080575b600080fd5b610060600480360381019061005b9190610795565b61009e565b005b61006a610311565b6040516100779190610b3c565b60405180910390f35b61008861033f565b6040516100959190610a58565b60405180910390f35b60016000808282546100b09190610c59565b925050819055506100f66040518060400160405280600d81526020017f257320686173207761766564210000000000000000000000000000000000000081525033610529565b600160405180606001604052803373ffffffffffffffffffffffffffffffffffffffff16815260200183815260200142815250908060018154018082558091505060019003906000526020600020906003020160009091909190915060008201518160000160006101000a81548173ffffffffffffffffffffffffffffffffffffffff021916908373ffffffffffffffffffffffffffffffffffffffff16021790555060208201518160010190805190602001906101b592919061068a565b506040820151816002015550503373ffffffffffffffffffffffffffffffffffffffff167f5f7e16dc676677766a70e9c5628aa6c54ddb8b6e5188e2ae1e1f17f1ffbea716428360405161020a929190610b57565b60405180910390a26000655af3107a4000905047811115610260576040517f08c379a000000000000000000000000000000000000000000000000000000000815260040161025790610afc565b60405180910390fd5b60003373ffffffffffffffffffffffffffffffffffffffff168260405161028690610a43565b60006040518083038185875af1925050503d80600081146102c3576040519150601f19603f3d011682016040523d82523d6000602084013e6102c8565b606091505b505090508061030c576040517f08c379a000000000000000000000000000000000000000000000000000000000815260040161030390610b1c565b60405180910390fd5b505050565b6000610337604051806060016040528060218152602001610dfe602191396000546105c5565b600054905090565b60606001805480602002602001604051908101604052809291908181526020016000905b8282101561048757838290600052602060002090600302016040518060600160405290816000820160009054906101000a900473ffffffffffffffffffffffffffffffffffffffff1673ffffffffffffffffffffffffffffffffffffffff1673ffffffffffffffffffffffffffffffffffffffff1681526020016001820180546103ec90610d2d565b80601f016020809104026020016040519081016040528092919081815260200182805461041890610d2d565b80156104655780601f1061043a57610100808354040283529160200191610465565b820191906000526020600020905b81548152906001019060200180831161044857829003601f168201915b5050505050815260200160028201548152505081526020019060010190610363565b50505050905090565b610526816040516024016104a49190610a7a565b6040516020818303038152906040527f41304fac000000000000000000000000000000000000000000000000000000007bffffffffffffffffffffffffffffffffffffffffffffffffffffffff19166020820180517bffffffffffffffffffffffffffffffffffffffffffffffffffffffff8381831617835250505050610661565b50565b6105c1828260405160240161053f929190610a9c565b6040516020818303038152906040527f319af333000000000000000000000000000000000000000000000000000000007bffffffffffffffffffffffffffffffffffffffffffffffffffffffff19166020820180517bffffffffffffffffffffffffffffffffffffffffffffffffffffffff8381831617835250505050610661565b5050565b61065d82826040516024016105db929190610acc565b6040516020818303038152906040527f9710a9d0000000000000000000000000000000000000000000000000000000007bffffffffffffffffffffffffffffffffffffffffffffffffffffffff19166020820180517bffffffffffffffffffffffffffffffffffffffffffffffffffffffff8381831617835250505050610661565b5050565b60008151905060006a636f6e736f6c652e6c6f679050602083016000808483855afa5050505050565b82805461069690610d2d565b90600052602060002090601f0160209004810192826106b857600085556106ff565b82601f106106d157805160ff19168380011785556106ff565b828001600101855582156106ff579182015b828111156106fe5782518255916020019190600101906106e3565b5b50905061070c9190610710565b5090565b5b80821115610729576000816000905550600101610711565b5090565b600061074061073b84610bb8565b610b87565b90508281526020810184848401111561075857600080fd5b610763848285610ceb565b509392505050565b600082601f83011261077c57600080fd5b813561078c84826020860161072d565b91505092915050565b6000602082840312156107a757600080fd5b600082013567ffffffffffffffff8111156107c157600080fd5b6107cd8482850161076b565b91505092915050565b60006107e283836109d5565b905092915050565b6107f381610caf565b82525050565b61080281610caf565b82525050565b600061081382610bf8565b61081d8185610c1b565b93508360208202850161082f85610be8565b8060005b8581101561086b578484038952815161084c85826107d6565b945061085783610c0e565b925060208a01995050600181019050610833565b50829750879550505050505092915050565b600061088882610c03565b6108928185610c37565b93506108a2818560208601610cfa565b6108ab81610dec565b840191505092915050565b60006108c182610c03565b6108cb8185610c48565b93506108db818560208601610cfa565b6108e481610dec565b840191505092915050565b60006108fc603483610c48565b91507f547279696e6720746f207769746864726177206d6f7265206d6f6e657920746860008301527f616e2074686520636f6e7472616374206861732e0000000000000000000000006020830152604082019050919050565b6000610962602783610c48565b91507f4661696c656420746f207769746864726177206d6f6e65792066726f6d20636f60008301527f6e74726163742e000000000000000000000000000000000000000000000000006020830152604082019050919050565b60006109c8600083610c2c565b9150600082019050919050565b60006060830160008301516109ed60008601826107ea565b5060208301518482036020860152610a05828261087d565b9150506040830151610a1a6040860182610a25565b508091505092915050565b610a2e81610ce1565b82525050565b610a3d81610ce1565b82525050565b6000610a4e826109bb565b9150819050919050565b60006020820190508181036000830152610a728184610808565b905092915050565b60006020820190508181036000830152610a9481846108b6565b905092915050565b60006040820190508181036000830152610ab681856108b6565b9050610ac560208301846107f9565b9392505050565b60006040820190508181036000830152610ae681856108b6565b9050610af56020830184610a34565b9392505050565b60006020820190508181036000830152610b15816108ef565b9050919050565b60006020820190508181036000830152610b3581610955565b9050919050565b6000602082019050610b516000830184610a34565b92915050565b6000604082019050610b6c6000830185610a34565b8181036020830152610b7e81846108b6565b90509392505050565b6000604051905081810181811067ffffffffffffffff82111715610bae57610bad610dbd565b5b8060405250919050565b600067ffffffffffffffff821115610bd357610bd2610dbd565b5b601f19601f8301169050602081019050919050565b6000819050602082019050919050565b600081519050919050565b600081519050919050565b6000602082019050919050565b600082825260208201905092915050565b600081905092915050565b600082825260208201905092915050565b600082825260208201905092915050565b6000610c6482610ce1565b9150610c6f83610ce1565b9250827fffffffffffffffffffffffffffffffffffffffffffffffffffffffffffffffff03821115610ca457610ca3610d5f565b5b828201905092915050565b6000610cba82610cc1565b9050919050565b600073ffffffffffffffffffffffffffffffffffffffff82169050919050565b6000819050919050565b82818337600083830152505050565b60005b83811015610d18578082015181840152602081019050610cfd565b83811115610d27576000848401525b50505050565b60006002820490506001821680610d4557607f821691505b60208210811415610d5957610d58610d8e565b5b50919050565b7f4e487b7100000000000000000000000000000000000000000000000000000000600052601160045260246000fd5b7f4e487b7100000000000000000000000000000000000000000000000000000000600052602260045260246000fd5b7f4e487b7100000000000000000000000000000000000000000000000000000000600052604160045260246000fd5b6000601f19601f830116905091905056fe5765206861766520256420746f74616c206e756d626572206f6620776176657321a2646970667358221220a9c6df0d2fe75d50be1e3722153dea3f486801a2b391484a99e0c978501d602564736f6c63430008000033",
  "linkReferences": {},
  "deployedLinkReferences": {}
}